{
  "_format": "hh-sol-artifact-1",
  "contractName": "EscrowMarketplace",
  "sourceName": "contracts/EscrowMarketplace.sol",
  "abi": [
    {
      "inputs": [
        {
          "internalType": "address",
          "name": "_feeRecipient",
          "type": "address"
        }
      ],
      "stateMutability": "nonpayable",
      "type": "constructor"
    },
    {
      "anonymous": false,
      "inputs": [
        {
          "indexed": true,
          "internalType": "uint256",
          "name": "purchaseId",
          "type": "uint256"
        }
      ],
      "name": "Confirmed",
      "type": "event"
    },
    {
      "anonymous": false,
      "inputs": [
        {
          "indexed": true,
          "internalType": "uint256",
          "name": "purchaseId",
          "type": "uint256"
        },
        {
          "indexed": true,
          "internalType": "address",
          "name": "buyer",
          "type": "address"
        },
        {
          "indexed": true,
          "internalType": "address",
          "name": "seller",
          "type": "address"
        },
        {
          "indexed": false,
          "internalType": "uint256",
          "name": "amount",
          "type": "uint256"
        },
        {
          "indexed": false,
          "internalType": "address",
          "name": "tokenAddress",
          "type": "address"
        }
      ],
      "name": "Purchased",
      "type": "event"
    },
    {
      "anonymous": false,
      "inputs": [
        {
          "indexed": true,
          "internalType": "uint256",
          "name": "purchaseId",
          "type": "uint256"
        }
      ],
      "name": "Refunded",
      "type": "event"
    },
    {
      "inputs": [
        {
          "internalType": "uint256",
          "name": "purchaseId",
          "type": "uint256"
        }
      ],
      "name": "confirmReceipt",
      "outputs": [],
      "stateMutability": "nonpayable",
      "type": "function"
    },
    {
      "inputs": [],
      "name": "feePercent",
      "outputs": [
        {
          "internalType": "uint256",
          "name": "",
          "type": "uint256"
        }
      ],
      "stateMutability": "view",
      "type": "function"
    },
    {
      "inputs": [],
      "name": "feeRecipient",
      "outputs": [
        {
          "internalType": "address",
          "name": "",
          "type": "address"
        }
      ],
      "stateMutability": "view",
      "type": "function"
    },
    {
      "inputs": [
        {
          "internalType": "address",
          "name": "seller",
          "type": "address"
        },
        {
          "internalType": "uint256",
          "name": "amount",
          "type": "uint256"
        },
        {
          "internalType": "address",
          "name": "tokenAddress",
          "type": "address"
        }
      ],
      "name": "purchase",
      "outputs": [
        {
          "internalType": "uint256",
          "name": "",
          "type": "uint256"
        }
      ],
      "stateMutability": "payable",
      "type": "function"
    },
    {
      "inputs": [],
      "name": "purchaseCount",
      "outputs": [
        {
          "internalType": "uint256",
          "name": "",
          "type": "uint256"
        }
      ],
      "stateMutability": "view",
      "type": "function"
    },
    {
      "inputs": [
        {
          "internalType": "uint256",
          "name": "",
          "type": "uint256"
        }
      ],
      "name": "purchases",
      "outputs": [
        {
          "internalType": "address",
          "name": "buyer",
          "type": "address"
        },
        {
          "internalType": "address",
          "name": "seller",
          "type": "address"
        },
        {
          "internalType": "uint256",
          "name": "amount",
          "type": "uint256"
        },
        {
          "internalType": "address",
          "name": "tokenAddress",
          "type": "address"
        },
        {
          "internalType": "bool",
          "name": "isConfirmed",
          "type": "bool"
        },
        {
          "internalType": "bool",
          "name": "isRefunded",
          "type": "bool"
        }
      ],
      "stateMutability": "view",
      "type": "function"
    },
    {
      "inputs": [
        {
          "internalType": "uint256",
          "name": "purchaseId",
          "type": "uint256"
        }
      ],
      "name": "refund",
      "outputs": [],
      "stateMutability": "nonpayable",
      "type": "function"
    }
  ],
  "bytecode": "0x608060405260026003553480156200001657600080fd5b50604051620017ba380380620017ba83398181016040528101906200003c919062000160565b600073ffffffffffffffffffffffffffffffffffffffff168173ffffffffffffffffffffffffffffffffffffffff1603620000ae576040517f08c379a0000000000000000000000000000000000000000000000000000000008152600401620000a590620001f3565b60405180910390fd5b80600260006101000a81548173ffffffffffffffffffffffffffffffffffffffff021916908373ffffffffffffffffffffffffffffffffffffffff1602179055505062000215565b600080fd5b600073ffffffffffffffffffffffffffffffffffffffff82169050919050565b60006200012882620000fb565b9050919050565b6200013a816200011b565b81146200014657600080fd5b50565b6000815190506200015a816200012f565b92915050565b600060208284031215620001795762000178620000f6565b5b6000620001898482850162000149565b91505092915050565b600082825260208201905092915050565b7f496e76616c69642066656520726563697069656e740000000000000000000000600082015250565b6000620001db60158362000192565b9150620001e882620001a3565b602082019050919050565b600060208201905081810360008301526200020e81620001cc565b9050919050565b61159580620002256000396000f3fe6080604052600436106100705760003560e01c80637fd6f15c1161004e5780637fd6f15c146100f45780638392fe311461011f578063843cba1314610161578063e37840661461018a57610070565b8063278ecde1146100755780632b85ed9c1461009e57806346904840146100c9575b600080fd5b34801561008157600080fd5b5061009c60048036038101906100979190610e57565b6101ba565b005b3480156100aa57600080fd5b506100b36104ec565b6040516100c09190610e93565b60405180910390f35b3480156100d557600080fd5b506100de6104f2565b6040516100eb9190610eef565b60405180910390f35b34801561010057600080fd5b50610109610518565b6040516101169190610e93565b60405180910390f35b34801561012b57600080fd5b5061014660048036038101906101419190610e57565b61051e565b60405161015896959493929190610f25565b60405180910390f35b34801561016d57600080fd5b5061018860048036038101906101839190610e57565b6105d4565b005b6101a4600480360381019061019f9190610fb2565b610a64565b6040516101b19190610e93565b60405180910390f35b600080600083815260200190815260200160002090508060010160009054906101000a900473ffffffffffffffffffffffffffffffffffffffff1673ffffffffffffffffffffffffffffffffffffffff163373ffffffffffffffffffffffffffffffffffffffff1614610262576040517f08c379a000000000000000000000000000000000000000000000000000000000815260040161025990611062565b60405180910390fd5b8060030160149054906101000a900460ff16156102b4576040517f08c379a00000000000000000000000000000000000000000000000000000000081526004016102ab906110ce565b60405180910390fd5b8060030160159054906101000a900460ff1615610306576040517f08c379a00000000000000000000000000000000000000000000000000000000081526004016102fd9061113a565b60405180910390fd5b60018160030160156101000a81548160ff021916908315150217905550600073ffffffffffffffffffffffffffffffffffffffff168160030160009054906101000a900473ffffffffffffffffffffffffffffffffffffffff1673ffffffffffffffffffffffffffffffffffffffff16036103ef578060000160009054906101000a900473ffffffffffffffffffffffffffffffffffffffff1673ffffffffffffffffffffffffffffffffffffffff166108fc82600201549081150290604051600060405180830381858888f193505050501580156103e9573d6000803e3d6000fd5b506104bb565b8060030160009054906101000a900473ffffffffffffffffffffffffffffffffffffffff1673ffffffffffffffffffffffffffffffffffffffff1663a9059cbb8260000160009054906101000a900473ffffffffffffffffffffffffffffffffffffffff1683600201546040518363ffffffff1660e01b815260040161047692919061115a565b6020604051808303816000875af1158015610495573d6000803e3d6000fd5b505050506040513d601f19601f820116820180604052508101906104b991906111af565b505b817f3d2a04f53164bedf9a8a46353305d6b2d2261410406df3b41f99ce6489dc003c60405160405180910390a25050565b60015481565b600260009054906101000a900473ffffffffffffffffffffffffffffffffffffffff1681565b60035481565b60006020528060005260406000206000915090508060000160009054906101000a900473ffffffffffffffffffffffffffffffffffffffff16908060010160009054906101000a900473ffffffffffffffffffffffffffffffffffffffff16908060020154908060030160009054906101000a900473ffffffffffffffffffffffffffffffffffffffff16908060030160149054906101000a900460ff16908060030160159054906101000a900460ff16905086565b600080600083815260200190815260200160002090508060000160009054906101000a900473ffffffffffffffffffffffffffffffffffffffff1673ffffffffffffffffffffffffffffffffffffffff163373ffffffffffffffffffffffffffffffffffffffff161461067c576040517f08c379a000000000000000000000000000000000000000000000000000000000815260040161067390611228565b60405180910390fd5b8060030160149054906101000a900460ff16156106ce576040517f08c379a00000000000000000000000000000000000000000000000000000000081526004016106c5906110ce565b60405180910390fd5b8060030160159054906101000a900460ff1615610720576040517f08c379a00000000000000000000000000000000000000000000000000000000081526004016107179061113a565b60405180910390fd5b60018160030160146101000a81548160ff0219169083151502179055506000606460035483600201546107539190611277565b61075d91906112e8565b905060008183600201546107719190611319565b9050600073ffffffffffffffffffffffffffffffffffffffff168360030160009054906101000a900473ffffffffffffffffffffffffffffffffffffffff1673ffffffffffffffffffffffffffffffffffffffff16036108a457600260009054906101000a900473ffffffffffffffffffffffffffffffffffffffff1673ffffffffffffffffffffffffffffffffffffffff166108fc839081150290604051600060405180830381858888f19350505050158015610833573d6000803e3d6000fd5b508260010160009054906101000a900473ffffffffffffffffffffffffffffffffffffffff1673ffffffffffffffffffffffffffffffffffffffff166108fc829081150290604051600060405180830381858888f1935050505015801561089e573d6000803e3d6000fd5b50610a31565b8260030160009054906101000a900473ffffffffffffffffffffffffffffffffffffffff1673ffffffffffffffffffffffffffffffffffffffff1663a9059cbb600260009054906101000a900473ffffffffffffffffffffffffffffffffffffffff16846040518363ffffffff1660e01b815260040161092592919061115a565b6020604051808303816000875af1158015610944573d6000803e3d6000fd5b505050506040513d601f19601f8201168201806040525081019061096891906111af565b508260030160009054906101000a900473ffffffffffffffffffffffffffffffffffffffff1673ffffffffffffffffffffffffffffffffffffffff1663a9059cbb8460010160009054906101000a900473ffffffffffffffffffffffffffffffffffffffff16836040518363ffffffff1660e01b81526004016109ec92919061115a565b6020604051808303816000875af1158015610a0b573d6000803e3d6000fd5b505050506040513d601f19601f82011682018060405250810190610a2f91906111af565b505b837f5745b04f0487ed3df77aef07f8203e42e3dda220117bb702fbb3fd48fb148d6160405160405180910390a250505050565b60008073ffffffffffffffffffffffffffffffffffffffff168273ffffffffffffffffffffffffffffffffffffffff1603610ae057823414610adb576040517f08c379a0000000000000000000000000000000000000000000000000000000008152600401610ad290611399565b60405180910390fd5b610be3565b60003414610b23576040517f08c379a0000000000000000000000000000000000000000000000000000000008152600401610b1a9061142b565b60405180910390fd5b8173ffffffffffffffffffffffffffffffffffffffff166323b872dd3330866040518463ffffffff1660e01b8152600401610b609392919061144b565b6020604051808303816000875af1158015610b7f573d6000803e3d6000fd5b505050506040513d601f19601f82011682018060405250810190610ba391906111af565b610be2576040517f08c379a0000000000000000000000000000000000000000000000000000000008152600401610bd9906114ce565b60405180910390fd5b5b60016000815480929190610bf6906114ee565b91905055506040518060c001604052803373ffffffffffffffffffffffffffffffffffffffff1681526020018573ffffffffffffffffffffffffffffffffffffffff1681526020018481526020018373ffffffffffffffffffffffffffffffffffffffff16815260200160001515815260200160001515815250600080600154815260200190815260200160002060008201518160000160006101000a81548173ffffffffffffffffffffffffffffffffffffffff021916908373ffffffffffffffffffffffffffffffffffffffff16021790555060208201518160010160006101000a81548173ffffffffffffffffffffffffffffffffffffffff021916908373ffffffffffffffffffffffffffffffffffffffff1602179055506040820151816002015560608201518160030160006101000a81548173ffffffffffffffffffffffffffffffffffffffff021916908373ffffffffffffffffffffffffffffffffffffffff16021790555060808201518160030160146101000a81548160ff02191690831515021790555060a08201518160030160156101000a81548160ff0219169083151502179055509050508373ffffffffffffffffffffffffffffffffffffffff163373ffffffffffffffffffffffffffffffffffffffff166001547f87ec136db8f68168aa06aa217661ca4e071e679c48f5668d397cb204b15d11a28686604051610e08929190611536565b60405180910390a460015490509392505050565b600080fd5b6000819050919050565b610e3481610e21565b8114610e3f57600080fd5b50565b600081359050610e5181610e2b565b92915050565b600060208284031215610e6d57610e6c610e1c565b5b6000610e7b84828501610e42565b91505092915050565b610e8d81610e21565b82525050565b6000602082019050610ea86000830184610e84565b92915050565b600073ffffffffffffffffffffffffffffffffffffffff82169050919050565b6000610ed982610eae565b9050919050565b610ee981610ece565b82525050565b6000602082019050610f046000830184610ee0565b92915050565b60008115159050919050565b610f1f81610f0a565b82525050565b600060c082019050610f3a6000830189610ee0565b610f476020830188610ee0565b610f546040830187610e84565b610f616060830186610ee0565b610f6e6080830185610f16565b610f7b60a0830184610f16565b979650505050505050565b610f8f81610ece565b8114610f9a57600080fd5b50565b600081359050610fac81610f86565b92915050565b600080600060608486031215610fcb57610fca610e1c565b5b6000610fd986828701610f9d565b9350506020610fea86828701610e42565b9250506040610ffb86828701610f9d565b9150509250925092565b600082825260208201905092915050565b7f4f6e6c792073656c6c65722063616e20726566756e6400000000000000000000600082015250565b600061104c601683611005565b915061105782611016565b602082019050919050565b6000602082019050818103600083015261107b8161103f565b9050919050565b7f416c726561647920636f6e6669726d6564000000000000000000000000000000600082015250565b60006110b8601183611005565b91506110c382611082565b602082019050919050565b600060208201905081810360008301526110e7816110ab565b9050919050565b7f416c726561647920726566756e64656400000000000000000000000000000000600082015250565b6000611124601083611005565b915061112f826110ee565b602082019050919050565b6000602082019050818103600083015261115381611117565b9050919050565b600060408201905061116f6000830185610ee0565b61117c6020830184610e84565b9392505050565b61118c81610f0a565b811461119757600080fd5b50565b6000815190506111a981611183565b92915050565b6000602082840312156111c5576111c4610e1c565b5b60006111d38482850161119a565b91505092915050565b7f4f6e6c792062757965722063616e20636f6e6669726d00000000000000000000600082015250565b6000611212601683611005565b915061121d826111dc565b602082019050919050565b6000602082019050818103600083015261124181611205565b9050919050565b7f4e487b7100000000000000000000000000000000000000000000000000000000600052601160045260246000fd5b600061128282610e21565b915061128d83610e21565b925082820261129b81610e21565b915082820484148315176112b2576112b1611248565b5b5092915050565b7f4e487b7100000000000000000000000000000000000000000000000000000000600052601260045260246000fd5b60006112f382610e21565b91506112fe83610e21565b92508261130e5761130d6112b9565b5b828204905092915050565b600061132482610e21565b915061132f83610e21565b925082820390508181111561134757611346611248565b5b92915050565b7f4554482073656e74206d757374206d6174636820616d6f756e74000000000000600082015250565b6000611383601a83611005565b915061138e8261134d565b602082019050919050565b600060208201905081810360008301526113b281611376565b9050919050565b7f455448206e6f7420616363657074656420666f7220455243323020707572636860008201527f6173650000000000000000000000000000000000000000000000000000000000602082015250565b6000611415602383611005565b9150611420826113b9565b604082019050919050565b6000602082019050818103600083015261144481611408565b9050919050565b60006060820190506114606000830186610ee0565b61146d6020830185610ee0565b61147a6040830184610e84565b949350505050565b7f4552433230207472616e73666572206661696c65640000000000000000000000600082015250565b60006114b8601583611005565b91506114c382611482565b602082019050919050565b600060208201905081810360008301526114e7816114ab565b9050919050565b60006114f982610e21565b91507fffffffffffffffffffffffffffffffffffffffffffffffffffffffffffffffff820361152b5761152a611248565b5b600182019050919050565b600060408201905061154b6000830185610e84565b6115586020830184610ee0565b939250505056fea26469706673582212208f45cebee05ad00c3067dee385c1ede9de33b96a750264aee1e63ad9d3001c6864736f6c63430008140033",
  "linkReferences": {},
  "deployedLinkReferences": {}
}